{
  "address": "0x5FbDB2315678afecb367f032d93F642f64180aa3",
  "abi": [
    {
      "inputs": [],
      "stateMutability": "nonpayable",
      "type": "constructor"
    },
    {
      "inputs": [],
      "name": "DeFiProtocol__NotEnoughQuantity",
      "type": "error"
    },
    {
      "inputs": [],
      "name": "DeFiProtocol__TokenNotSupported",
      "type": "error"
    },
    {
      "inputs": [],
      "name": "DeFiProtocol__TransferFromFailure",
      "type": "error"
    },
    {
      "anonymous": false,
      "inputs": [],
      "name": "Borrow",
      "type": "event"
    },
    {
      "anonymous": false,
      "inputs": [
        {
          "indexed": true,
          "internalType": "address",
          "name": "previousOwner",
          "type": "address"
        },
        {
          "indexed": true,
          "internalType": "address",
          "name": "newOwner",
          "type": "address"
        }
      ],
      "name": "OwnershipTransferred",
      "type": "event"
    },
    {
      "anonymous": false,
      "inputs": [],
      "name": "Redeem",
      "type": "event"
    },
    {
      "anonymous": false,
      "inputs": [
        {
          "indexed": true,
          "internalType": "address",
          "name": "stakerAddress",
          "type": "address"
        },
        {
          "indexed": false,
          "internalType": "uint256",
          "name": "amount",
          "type": "uint256"
        },
        {
          "indexed": false,
          "internalType": "address",
          "name": "stakedToken",
          "type": "address"
        },
        {
          "indexed": false,
          "internalType": "uint256",
          "name": "startDate",
          "type": "uint256"
        }
      ],
      "name": "Stake",
      "type": "event"
    },
    {
      "inputs": [
        {
          "internalType": "address",
          "name": "_token",
          "type": "address"
        }
      ],
      "name": "addAllowedToken",
      "outputs": [],
      "stateMutability": "nonpayable",
      "type": "function"
    },
    {
      "inputs": [
        {
          "internalType": "uint256",
          "name": "_amount",
          "type": "uint256"
        },
        {
          "internalType": "address",
          "name": "_borrower",
          "type": "address"
        }
      ],
      "name": "borrow",
      "outputs": [],
      "stateMutability": "nonpayable",
      "type": "function"
    },
    {
      "inputs": [],
      "name": "getAllowedTokens",
      "outputs": [
        {
          "internalType": "address[]",
          "name": "",
          "type": "address[]"
        }
      ],
      "stateMutability": "view",
      "type": "function"
    },
    {
      "inputs": [
        {
          "internalType": "address",
          "name": "_token",
          "type": "address"
        }
      ],
      "name": "getSmartContractBalance",
      "outputs": [
        {
          "internalType": "uint256",
          "name": "",
          "type": "uint256"
        }
      ],
      "stateMutability": "view",
      "type": "function"
    },
    {
      "inputs": [
        {
          "internalType": "address",
          "name": "staker",
          "type": "address"
        }
      ],
      "name": "getStaker",
      "outputs": [
        {
          "components": [
            {
              "internalType": "address",
              "name": "staker",
              "type": "address"
            },
            {
              "internalType": "uint256",
              "name": "amount",
              "type": "uint256"
            },
            {
              "internalType": "address",
              "name": "stakedToken",
              "type": "address"
            },
            {
              "internalType": "uint256",
              "name": "startDate",
              "type": "uint256"
            },
            {
              "internalType": "uint256",
              "name": "duration",
              "type": "uint256"
            }
          ],
          "internalType": "struct DeFiProtocol.Staker[]",
          "name": "",
          "type": "tuple[]"
        }
      ],
      "stateMutability": "view",
      "type": "function"
    },
    {
      "inputs": [],
      "name": "owner",
      "outputs": [
        {
          "internalType": "address",
          "name": "",
          "type": "address"
        }
      ],
      "stateMutability": "view",
      "type": "function"
    },
    {
      "inputs": [
        {
          "internalType": "uint256",
          "name": "_index",
          "type": "uint256"
        }
      ],
      "name": "redeemStake",
      "outputs": [],
      "stateMutability": "nonpayable",
      "type": "function"
    },
    {
      "inputs": [],
      "name": "renounceOwnership",
      "outputs": [],
      "stateMutability": "nonpayable",
      "type": "function"
    },
    {
      "inputs": [
        {
          "internalType": "address",
          "name": "_token",
          "type": "address"
        }
      ],
      "name": "setPBorrow",
      "outputs": [],
      "stateMutability": "nonpayable",
      "type": "function"
    },
    {
      "inputs": [
        {
          "internalType": "address",
          "name": "_token",
          "type": "address"
        }
      ],
      "name": "setPLend",
      "outputs": [],
      "stateMutability": "nonpayable",
      "type": "function"
    },
    {
      "inputs": [
        {
          "internalType": "uint256",
          "name": "_amount",
          "type": "uint256"
        },
        {
          "internalType": "address",
          "name": "_token",
          "type": "address"
        }
      ],
      "name": "stake",
      "outputs": [],
      "stateMutability": "nonpayable",
      "type": "function"
    },
    {
      "inputs": [
        {
          "internalType": "address",
          "name": "newOwner",
          "type": "address"
        }
      ],
      "name": "transferOwnership",
      "outputs": [],
      "stateMutability": "nonpayable",
      "type": "function"
    }
  ],
  "transactionHash": "0x2152776e0d72db1c7dba40ca42c3029cdd55e7d47efb3b13d412c8b5b3ca0574",
  "args": [],
  "numDeployments": 1,
  "solcInputHash": "eb0394d287f0ceb9383c626aa9e53808",
  "bytecode": "0x608060405234801561001057600080fd5b5061002d61002261003260201b60201c565b61003a60201b60201c565b6100fe565b600033905090565b60008060009054906101000a900473ffffffffffffffffffffffffffffffffffffffff169050816000806101000a81548173ffffffffffffffffffffffffffffffffffffffff021916908373ffffffffffffffffffffffffffffffffffffffff1602179055508173ffffffffffffffffffffffffffffffffffffffff168173ffffffffffffffffffffffffffffffffffffffff167f8be0079c531659141344cd1fd0a4f28419497f9722a3daafe3b4186f6b6457e060405160405180910390a35050565b611a4d8061010d6000396000f3fe608060405234801561001057600080fd5b50600436106100b45760003560e01c80637acb7757116100715780637acb7757146101515780638da5cb5b1461016d57806398af4ad61461018b578063a23c44b1146101a7578063f2fde38b146101d7578063f84e2b84146101f3576100b4565b8063024ece89146100b957806310ff994d146100d75780634178617f146100f357806348d04f3c1461010f5780634b3fd1481461012b578063715018a614610147575b600080fd5b6100c1610223565b6040516100ce91906112b3565b60405180910390f35b6100f160048036038101906100ec9190611310565b6102b1565b005b61010d60048036038101906101089190611369565b6105d8565b005b61012960048036038101906101249190611369565b610646565b005b61014560048036038101906101409190611396565b610692565b005b61014f61089b565b005b61016b60048036038101906101669190611396565b6108af565b005b610175610d86565b60405161018291906113e5565b60405180910390f35b6101a560048036038101906101a09190611369565b610daf565b005b6101c160048036038101906101bc9190611369565b610dfb565b6040516101ce9190611526565b60405180910390f35b6101f160048036038101906101ec9190611369565b610f63565b005b61020d60048036038101906102089190611369565b610fe7565b60405161021a9190611557565b60405180910390f35b606060038054806020026020016040519081016040528092919081815260200182805480156102a757602002820191906000526020600020905b8160009054906101000a900473ffffffffffffffffffffffffffffffffffffffff1673ffffffffffffffffffffffffffffffffffffffff168152602001906001019080831161025d575b5050505050905090565b6000600460003373ffffffffffffffffffffffffffffffffffffffff1673ffffffffffffffffffffffffffffffffffffffff168152602001908152602001600020828154811061030457610303611572565b5b90600052602060002090600502016040518060a00160405290816000820160009054906101000a900473ffffffffffffffffffffffffffffffffffffffff1673ffffffffffffffffffffffffffffffffffffffff1673ffffffffffffffffffffffffffffffffffffffff168152602001600182015481526020016002820160009054906101000a900473ffffffffffffffffffffffffffffffffffffffff1673ffffffffffffffffffffffffffffffffffffffff1673ffffffffffffffffffffffffffffffffffffffff1681526020016003820154815260200160048201548152505090506201518081608001516103fc91906115d0565b816060015161040b919061162a565b42101561044d576040517f08c379a0000000000000000000000000000000000000000000000000000000008152600401610444906116dd565b60405180910390fd5b600460003373ffffffffffffffffffffffffffffffffffffffff1673ffffffffffffffffffffffffffffffffffffffff168152602001908152602001600020828154811061049e5761049d611572565b5b9060005260206000209060050201600080820160006101000a81549073ffffffffffffffffffffffffffffffffffffffff021916905560018201600090556002820160006101000a81549073ffffffffffffffffffffffffffffffffffffffff0219169055600382016000905560048201600090555050600160009054906101000a900473ffffffffffffffffffffffffffffffffffffffff1673ffffffffffffffffffffffffffffffffffffffff1663a2fb342d3383602001516040518363ffffffff1660e01b81526004016105769291906116fd565b600060405180830381600087803b15801561059057600080fd5b505af11580156105a4573d6000803e3d6000fd5b505050507fd95402e764607b7b568a855d3414c03561cb940c03bb4d4ee47ea289e4f96a4260405160405180910390a15050565b6105e0611079565b6003819080600181540180825580915050600190039060005260206000200160009091909190916101000a81548173ffffffffffffffffffffffffffffffffffffffff021916908373ffffffffffffffffffffffffffffffffffffffff16021790555050565b61064e611079565b80600160006101000a81548173ffffffffffffffffffffffffffffffffffffffff021916908373ffffffffffffffffffffffffffffffffffffffff16021790555050565b61069a611079565b600082116106d4576040517f949f3cfb00000000000000000000000000000000000000000000000000000000815260040160405180910390fd5b600560008273ffffffffffffffffffffffffffffffffffffffff1673ffffffffffffffffffffffffffffffffffffffff16815260200190815260200160002060405180608001604052808373ffffffffffffffffffffffffffffffffffffffff16815260200184815260200142815260200161016d815250908060018154018082558091505060019003906000526020600020906004020160009091909190915060008201518160000160006101000a81548173ffffffffffffffffffffffffffffffffffffffff021916908373ffffffffffffffffffffffffffffffffffffffff1602179055506020820151816001015560408201518160020155606082015181600301555050600260009054906101000a900473ffffffffffffffffffffffffffffffffffffffff1673ffffffffffffffffffffffffffffffffffffffff16634b8a352982846040518363ffffffff1660e01b81526004016108399291906116fd565b600060405180830381600087803b15801561085357600080fd5b505af1158015610867573d6000803e3d6000fd5b505050507fd1c4c533afe5a3641fd396825539edfa78036f459a364db9bccaa5eb853060cd60405160405180910390a15050565b6108a3611079565b6108ad60006110f7565b565b806000600380548060200260200160405190810160405280929190818152602001828054801561093457602002820191906000526020600020905b8160009054906101000a900473ffffffffffffffffffffffffffffffffffffffff1673ffffffffffffffffffffffffffffffffffffffff16815260200190600101908083116108ea575b5050505050905060005b8151811015610d4e578273ffffffffffffffffffffffffffffffffffffffff1682828151811061097157610970611572565b5b602002602001015173ffffffffffffffffffffffffffffffffffffffff161415610d3b5784846000819050828173ffffffffffffffffffffffffffffffffffffffff1663dd62ed3e33306040518363ffffffff1660e01b81526004016109d8929190611726565b60206040518083038186803b1580156109f057600080fd5b505afa158015610a04573d6000803e3d6000fd5b505050506040513d601f19601f82011682018060405250810190610a289190611764565b1015610a69576040517f08c379a0000000000000000000000000000000000000000000000000000000008152600401610a60906117dd565b60405180910390fd5b600033905060008911610aa8576040517f949f3cfb00000000000000000000000000000000000000000000000000000000815260040160405180910390fd5b60008873ffffffffffffffffffffffffffffffffffffffff166323b872dd83308d6040518463ffffffff1660e01b8152600401610ae7939291906117fd565b602060405180830381600087803b158015610b0157600080fd5b505af1158015610b15573d6000803e3d6000fd5b505050506040513d601f19601f82011682018060405250810190610b39919061186c565b905080610b72576040517f891fc0c800000000000000000000000000000000000000000000000000000000815260040160405180910390fd5b600460008373ffffffffffffffffffffffffffffffffffffffff1673ffffffffffffffffffffffffffffffffffffffff1681526020019081526020016000206040518060a001604052808473ffffffffffffffffffffffffffffffffffffffff1681526020018c81526020018b73ffffffffffffffffffffffffffffffffffffffff16815260200142815260200161016d815250908060018154018082558091505060019003906000526020600020906005020160009091909190915060008201518160000160006101000a81548173ffffffffffffffffffffffffffffffffffffffff021916908373ffffffffffffffffffffffffffffffffffffffff1602179055506020820151816001015560408201518160020160006101000a81548173ffffffffffffffffffffffffffffffffffffffff021916908373ffffffffffffffffffffffffffffffffffffffff160217905550606082015181600301556080820151816004015550508173ffffffffffffffffffffffffffffffffffffffff167f1bd1eb6b4fd3f08e718d7a241c54c4641c9f36004b6949383f48d15a2fcc8f528b8b42604051610d2793929190611899565b60405180910390a250505050505050610d81565b8080610d46906118d0565b91505061093e565b506040517fe59ad5bd00000000000000000000000000000000000000000000000000000000815260040160405180910390fd5b505050565b60008060009054906101000a900473ffffffffffffffffffffffffffffffffffffffff16905090565b610db7611079565b80600260006101000a81548173ffffffffffffffffffffffffffffffffffffffff021916908373ffffffffffffffffffffffffffffffffffffffff16021790555050565b6060600460008373ffffffffffffffffffffffffffffffffffffffff1673ffffffffffffffffffffffffffffffffffffffff168152602001908152602001600020805480602002602001604051908101604052809291908181526020016000905b82821015610f5857838290600052602060002090600502016040518060a00160405290816000820160009054906101000a900473ffffffffffffffffffffffffffffffffffffffff1673ffffffffffffffffffffffffffffffffffffffff1673ffffffffffffffffffffffffffffffffffffffff168152602001600182015481526020016002820160009054906101000a900473ffffffffffffffffffffffffffffffffffffffff1673ffffffffffffffffffffffffffffffffffffffff1673ffffffffffffffffffffffffffffffffffffffff1681526020016003820154815260200160048201548152505081526020019060010190610e5c565b505050509050919050565b610f6b611079565b600073ffffffffffffffffffffffffffffffffffffffff168173ffffffffffffffffffffffffffffffffffffffff161415610fdb576040517f08c379a0000000000000000000000000000000000000000000000000000000008152600401610fd29061198b565b60405180910390fd5b610fe4816110f7565b50565b60008173ffffffffffffffffffffffffffffffffffffffff166370a08231306040518263ffffffff1660e01b815260040161102291906113e5565b60206040518083038186803b15801561103a57600080fd5b505afa15801561104e573d6000803e3d6000fd5b505050506040513d601f19601f820116820180604052508101906110729190611764565b9050919050565b6110816111bb565b73ffffffffffffffffffffffffffffffffffffffff1661109f610d86565b73ffffffffffffffffffffffffffffffffffffffff16146110f5576040517f08c379a00000000000000000000000000000000000000000000000000000000081526004016110ec906119f7565b60405180910390fd5b565b60008060009054906101000a900473ffffffffffffffffffffffffffffffffffffffff169050816000806101000a81548173ffffffffffffffffffffffffffffffffffffffff021916908373ffffffffffffffffffffffffffffffffffffffff1602179055508173ffffffffffffffffffffffffffffffffffffffff168173ffffffffffffffffffffffffffffffffffffffff167f8be0079c531659141344cd1fd0a4f28419497f9722a3daafe3b4186f6b6457e060405160405180910390a35050565b600033905090565b600081519050919050565b600082825260208201905092915050565b6000819050602082019050919050565b600073ffffffffffffffffffffffffffffffffffffffff82169050919050565b600061121a826111ef565b9050919050565b61122a8161120f565b82525050565b600061123c8383611221565b60208301905092915050565b6000602082019050919050565b6000611260826111c3565b61126a81856111ce565b9350611275836111df565b8060005b838110156112a657815161128d8882611230565b975061129883611248565b925050600181019050611279565b5085935050505092915050565b600060208201905081810360008301526112cd8184611255565b905092915050565b600080fd5b6000819050919050565b6112ed816112da565b81146112f857600080fd5b50565b60008135905061130a816112e4565b92915050565b600060208284031215611326576113256112d5565b5b6000611334848285016112fb565b91505092915050565b6113468161120f565b811461135157600080fd5b50565b6000813590506113638161133d565b92915050565b60006020828403121561137f5761137e6112d5565b5b600061138d84828501611354565b91505092915050565b600080604083850312156113ad576113ac6112d5565b5b60006113bb858286016112fb565b92505060206113cc85828601611354565b9150509250929050565b6113df8161120f565b82525050565b60006020820190506113fa60008301846113d6565b92915050565b600081519050919050565b600082825260208201905092915050565b6000819050602082019050919050565b611435816112da565b82525050565b60a0820160008201516114516000850182611221565b506020820151611464602085018261142c565b5060408201516114776040850182611221565b50606082015161148a606085018261142c565b50608082015161149d608085018261142c565b50505050565b60006114af838361143b565b60a08301905092915050565b6000602082019050919050565b60006114d382611400565b6114dd818561140b565b93506114e88361141c565b8060005b8381101561151957815161150088826114a3565b975061150b836114bb565b9250506001810190506114ec565b5085935050505092915050565b6000602082019050818103600083015261154081846114c8565b905092915050565b611551816112da565b82525050565b600060208201905061156c6000830184611548565b92915050565b7f4e487b7100000000000000000000000000000000000000000000000000000000600052603260045260246000fd5b7f4e487b7100000000000000000000000000000000000000000000000000000000600052601160045260246000fd5b60006115db826112da565b91506115e6836112da565b9250817fffffffffffffffffffffffffffffffffffffffffffffffffffffffffffffffff048311821515161561161f5761161e6115a1565b5b828202905092915050565b6000611635826112da565b9150611640836112da565b9250827fffffffffffffffffffffffffffffffffffffffffffffffffffffffffffffffff03821115611675576116746115a1565b5b828201905092915050565b600082825260208201905092915050565b7f5374616b696e67206973207374696c6c206c6f636b6564000000000000000000600082015250565b60006116c7601783611680565b91506116d282611691565b602082019050919050565b600060208201905081810360008301526116f6816116ba565b9050919050565b600060408201905061171260008301856113d6565b61171f6020830184611548565b9392505050565b600060408201905061173b60008301856113d6565b61174860208301846113d6565b9392505050565b60008151905061175e816112e4565b92915050565b60006020828403121561177a576117796112d5565b5b60006117888482850161174f565b91505092915050565b7f4e6f7420656e6f75676820616c6c6f77616e6365000000000000000000000000600082015250565b60006117c7601483611680565b91506117d282611791565b602082019050919050565b600060208201905081810360008301526117f6816117ba565b9050919050565b600060608201905061181260008301866113d6565b61181f60208301856113d6565b61182c6040830184611548565b949350505050565b60008115159050919050565b61184981611834565b811461185457600080fd5b50565b60008151905061186681611840565b92915050565b600060208284031215611882576118816112d5565b5b600061189084828501611857565b91505092915050565b60006060820190506118ae6000830186611548565b6118bb60208301856113d6565b6118c86040830184611548565b949350505050565b60006118db826112da565b91507fffffffffffffffffffffffffffffffffffffffffffffffffffffffffffffffff82141561190e5761190d6115a1565b5b600182019050919050565b7f4f776e61626c653a206e6577206f776e657220697320746865207a65726f206160008201527f6464726573730000000000000000000000000000000000000000000000000000602082015250565b6000611975602683611680565b915061198082611919565b604082019050919050565b600060208201905081810360008301526119a481611968565b9050919050565b7f4f776e61626c653a2063616c6c6572206973206e6f7420746865206f776e6572600082015250565b60006119e1602083611680565b91506119ec826119ab565b602082019050919050565b60006020820190508181036000830152611a10816119d4565b905091905056fea264697066735822122085752448b997136d7411cd91dc5036ce6791fbdc2a4d2b69453269427063fb2564736f6c63430008090033",
  "devdoc": {
    "kind": "dev",
    "methods": {
      "owner()": {
        "details": "Returns the address of the current owner."
      },
      "renounceOwnership()": {
        "details": "Leaves the contract without owner. It will not be possible to call `onlyOwner` functions anymore. Can only be called by the current owner. NOTE: Renouncing ownership will leave the contract without an owner, thereby removing any functionality that is only available to the owner."
      },
      "transferOwnership(address)": {
        "details": "Transfers ownership of the contract to a new account (`newOwner`). Can only be called by the current owner."
      }
    },
    "version": 1
  },
  "userdoc": {
    "kind": "user",
    "methods": {},
    "version": 1
  },
  "storageLayout": {
    "storage": [
      {
        "astId": 7,
        "contract": "contracts/DeFiProtocol.sol:DeFiProtocol",
        "label": "_owner",
        "offset": 0,
        "slot": "0",
        "type": "t_address"
      },
      {
        "astId": 3115,
        "contract": "contracts/DeFiProtocol.sol:DeFiProtocol",
        "label": "pLend",
        "offset": 0,
        "slot": "1",
        "type": "t_contract(PLend)3684"
      },
      {
        "astId": 3118,
        "contract": "contracts/DeFiProtocol.sol:DeFiProtocol",
        "label": "pBorrow",
        "offset": 0,
        "slot": "2",
        "type": "t_contract(PBorrow)3599"
      },
      {
        "astId": 3121,
        "contract": "contracts/DeFiProtocol.sol:DeFiProtocol",
        "label": "allowedTokens",
        "offset": 0,
        "slot": "3",
        "type": "t_array(t_address)dyn_storage"
      },
      {
        "astId": 3127,
        "contract": "contracts/DeFiProtocol.sol:DeFiProtocol",
        "label": "staking",
        "offset": 0,
        "slot": "4",
        "type": "t_mapping(t_address,t_array(t_struct(Staker)3099_storage)dyn_storage)"
      },
      {
        "astId": 3133,
        "contract": "contracts/DeFiProtocol.sol:DeFiProtocol",
        "label": "borrowing",
        "offset": 0,
        "slot": "5",
        "type": "t_mapping(t_address,t_array(t_struct(Borrower)3108_storage)dyn_storage)"
      }
    ],
    "types": {
      "t_address": {
        "encoding": "inplace",
        "label": "address",
        "numberOfBytes": "20"
      },
      "t_array(t_address)dyn_storage": {
        "base": "t_address",
        "encoding": "dynamic_array",
        "label": "address[]",
        "numberOfBytes": "32"
      },
      "t_array(t_struct(Borrower)3108_storage)dyn_storage": {
        "base": "t_struct(Borrower)3108_storage",
        "encoding": "dynamic_array",
        "label": "struct DeFiProtocol.Borrower[]",
        "numberOfBytes": "32"
      },
      "t_array(t_struct(Staker)3099_storage)dyn_storage": {
        "base": "t_struct(Staker)3099_storage",
        "encoding": "dynamic_array",
        "label": "struct DeFiProtocol.Staker[]",
        "numberOfBytes": "32"
      },
      "t_contract(PBorrow)3599": {
        "encoding": "inplace",
        "label": "contract PBorrow",
        "numberOfBytes": "20"
      },
      "t_contract(PLend)3684": {
        "encoding": "inplace",
        "label": "contract PLend",
        "numberOfBytes": "20"
      },
      "t_mapping(t_address,t_array(t_struct(Borrower)3108_storage)dyn_storage)": {
        "encoding": "mapping",
        "key": "t_address",
        "label": "mapping(address => struct DeFiProtocol.Borrower[])",
        "numberOfBytes": "32",
        "value": "t_array(t_struct(Borrower)3108_storage)dyn_storage"
      },
      "t_mapping(t_address,t_array(t_struct(Staker)3099_storage)dyn_storage)": {
        "encoding": "mapping",
        "key": "t_address",
        "label": "mapping(address => struct DeFiProtocol.Staker[])",
        "numberOfBytes": "32",
        "value": "t_array(t_struct(Staker)3099_storage)dyn_storage"
      },
      "t_struct(Borrower)3108_storage": {
        "encoding": "inplace",
        "label": "struct DeFiProtocol.Borrower",
        "members": [
          {
            "astId": 3101,
            "contract": "contracts/DeFiProtocol.sol:DeFiProtocol",
            "label": "borrower",
            "offset": 0,
            "slot": "0",
            "type": "t_address"
          },
          {
            "astId": 3103,
            "contract": "contracts/DeFiProtocol.sol:DeFiProtocol",
            "label": "amount",
            "offset": 0,
            "slot": "1",
            "type": "t_uint256"
          },
          {
            "astId": 3105,
            "contract": "contracts/DeFiProtocol.sol:DeFiProtocol",
            "label": "startDate",
            "offset": 0,
            "slot": "2",
            "type": "t_uint256"
          },
          {
            "astId": 3107,
            "contract": "contracts/DeFiProtocol.sol:DeFiProtocol",
            "label": "duration",
            "offset": 0,
            "slot": "3",
            "type": "t_uint256"
          }
        ],
        "numberOfBytes": "128"
      },
      "t_struct(Staker)3099_storage": {
        "encoding": "inplace",
        "label": "struct DeFiProtocol.Staker",
        "members": [
          {
            "astId": 3090,
            "contract": "contracts/DeFiProtocol.sol:DeFiProtocol",
            "label": "staker",
            "offset": 0,
            "slot": "0",
            "type": "t_address"
          },
          {
            "astId": 3092,
            "contract": "contracts/DeFiProtocol.sol:DeFiProtocol",
            "label": "amount",
            "offset": 0,
            "slot": "1",
            "type": "t_uint256"
          },
          {
            "astId": 3094,
            "contract": "contracts/DeFiProtocol.sol:DeFiProtocol",
            "label": "stakedToken",
            "offset": 0,
            "slot": "2",
            "type": "t_address"
          },
          {
            "astId": 3096,
            "contract": "contracts/DeFiProtocol.sol:DeFiProtocol",
            "label": "startDate",
            "offset": 0,
            "slot": "3",
            "type": "t_uint256"
          },
          {
            "astId": 3098,
            "contract": "contracts/DeFiProtocol.sol:DeFiProtocol",
            "label": "duration",
            "offset": 0,
            "slot": "4",
            "type": "t_uint256"
          }
        ],
        "numberOfBytes": "160"
      },
      "t_uint256": {
        "encoding": "inplace",
        "label": "uint256",
        "numberOfBytes": "32"
      }
    }
  }
}